:100000000C94B1000C94CE000C94CE000C94CE0055
:100010000C94CE000C94CE000C94CE000C94CE0028
:100020000C94CE000C94CE000C94CE000C94CE0018
:100030000C94CE000C94CE000C94CE000C94CE0008
:100040000C94CE000C94CE000C94CE000C94CE00F8
:100050000C94CE000C94CE000C94CE000C94CE00E8
:100060000C94CE000C94CE0000407A10F35A00A0FD
:10007000724E18090010A5D4E80000E87648170071
:1000800000E40B54020000CA9A3B000000E1F505B1
:10009000000080969800000040420F000000A086FB
:1000A00001000000102700000000E803000000002D
:1000B0006400000000000A000000000001000000D1
:1000C00000002C76D888DC674F0823DFC1DFAE59EB
:1000D000E1B1B796E5E3E453C63AE651997696E87E
:1000E000E6C28426EB898C9B62ED407C6FFCEFBC02
:1000F0009C9F40F2BAA56FA5F490055A2AF75C932D
:100100006B6CF9676DC11BFCE0E40D47FEF520E662
:10011000B500D0ED902E0300943577050080841E45
:10012000080000204E0A000000C80C333333330FA0
:10013000986E12831141EF8D2114893BE65516CF3D
:10014000FEE6DB18D1844B381BF77C1D901DA4BB49
:10015000E424203284725E228100C9F124ECA1E5FE
:100160003D2711241FBECFEFD8E0DEBFCDBF11E089
:10017000A0E0B1E0E0E1F7E102C005900D92A83304
:10018000B107D9F721E0A8E3B1E001C01D92AC3579
:10019000B207E1F70E94C0050C94860B0C94000096
:1001A000CF93DF93D82FC62F0E944A058CEE90E0A4
:1001B0000E945A058D2F90E00E945A058C2F90E0E6
:1001C0000E945A050E945605DF91CF910895CF9362
:1001D000C82F0E944A058CEE90E00E945A058C2F91
:1001E00090E00E945A050E944A058DEE90E00E9420
:1001F0005A050E946805C82F0E9456058C2FCF9182
:10020000089580ED0E94E700883569F02FEF83E2C2
:1002100094EF215080409040E1F700C0000080E062
:1002200091E00E948705089566EB80EE0E94D00061
:1002300083EF0E94E70080FDFBCF089569E284EF21
:100240000E94D00060E085EF0E94D0000895CF9317
:1002500088E80E94E700C82F89E80E94E7002C2F59
:1002600030E0382B30934301209342018AE80E940A
:10027000E700C82F8BE80E94E7002C2F30E0382BD6
:1002800030934501209344018CE80E94E700C82F79
:100290008DE80E94E7002C2F30E0382B3093550179
:1002A000209354018EE80E94E700C82F8FE80E9437
:1002B000E7002C2F30E0382B30934D0120934C0178
:1002C00080E90E94E700C82F81E90E94E7002C2FF7
:1002D00030E0382B309347012093460182E90E9499
:1002E000E700C82F83E90E94E7002C2F30E0382B6D
:1002F00030934F0120934E0184E90E94E700C82FFC
:1003000085E90E94E7002C2F30E0382B309349011B
:100310002093480186E90E94E700C82F87E90E94E0
:10032000E7002C2F30E0382B30934B0120934A010B
:1003300088E90E94E700C82F89E90E94E7002C2F76
:1003400030E0382B30935701209356018AE90E9400
:10035000E700C82F8BE90E94E7002C2F30E0382BF4
:1003600030934101209340018CE90E94E700C82F9F
:100370008DE90E94E7002C2F30E0382B309351019B
:10038000209350018EE90E94E700C82F8FE90E9458
:10039000E7002C2F30E0382B30935301209352018B
:1003A000CF9108950F931F93CF938AEF0E94E70098
:1003B000082F8BEF0E94E700C82F8CEF0E94E70008
:1003C000402F50E060E070E08A019B010F2EFCE0BE
:1003D000000F111F221F331FFA95D1F7F02D4C2F5C
:1003E00050E060E070E0440F551F661F771F440F18
:1003F000551F661F771F440F551F661F771F440F39
:10040000551F661F771F402B512B622B732B829534
:100410008F708A019B01082BC901B801CF911F91F0
:100420000F9108950F931F93CF9387EF0E94E700DA
:10043000082F88EF0E94E700C82F89EF0E94E7008D
:10044000402F50E060E070E08A019B010F2EFCE03D
:10045000000F111F221F331FFA95D1F7F02D4C2FDB
:1004600050E060E070E0440F551F661F771F440F97
:10047000551F661F771F440F551F661F771F440FB8
:10048000551F661F771F402B512B622B732B8295B4
:100490008F708A019B01082BC901B801CF911F9170
:1004A0000F9108958F929F92AF92BF92CF92DF9259
:1004B000EF92FF920F931F9300914201109143011D
:1004C00020E030E06B017C01689413F8F594E79428
:1004D000D794C7941694D1F7C01AD10AE20AF30A46
:1004E000DC01CB01689412F8B595A795979587958F
:1004F0001694D1F7000F111F221F331F4C015D010D
:10050000801A910AA20AB30AA5019401A09144019C
:10051000B09145010E9498074B015C01072E7BE0DA
:10052000B594A794979487947A95D1F7702DA701E5
:100530009601C701B6010E947D079B01AC01012E07
:100540001CE055954795379527951A95D1F7102DAD
:10055000A0915401B09155010E949807DC01CB0194
:10056000072E7EE0B595A795979587957A95D1F753
:10057000702D880D991DAA1DBB1D80935801909365
:100580005901A0935A01B0935B018C019D01000FAA
:10059000111F221F331F000F111F221F331F800F37
:1005A000911FA21FB31F80589F4FAF4FBF4F692F9E
:1005B0007A2F8B2F992787FD9A951F910F91FF9086
:1005C000EF90DF90CF90BF90AF909F908F90089565
:1005D0002F923F924F925F926F927F928F929F9253
:1005E000AF92BF92CF92DF92EF92FF920F931F9341
:1005F000CF93DF93CDB7DEB769970FB6F894DEBF20
:100600000FBECDBF6C8B7D8B8E8B9F8B80915801E5
:1006100090915901A0915A01B0915B016C017D014B
:10062000FF0CCC08DC2C7601282F392F4A2F5B2FAA
:100630006C2D7C2D8C2D9C2D345F4140510961091E
:1006400071098109910929833D834E835F836887FE
:1006500079878A879B87A22EB32EC42ED52EE62EAD
:10066000F72E082F192F0E94A0072C873D874E8751
:100670005F87688B798B8A8B9B8B309147012091A8
:100680004601932F990F990B492F592F692F792FD5
:10069000892F0E94A0070CE00E94D008622E732EC2
:1006A000842E952E698F788F582E492E30914F01C8
:1006B00020914E01932F990F990BAC84BD84CE8469
:1006C000DF84E888F9880A891B89492F592F692F07
:1006D000792F892F0E94A00708E00E94E908A62C24
:1006E000B72CC82CD92CE98CF88C052D142D0E9420
:1006F000070970588F4F9F4F20904C0130904D014B
:10070000A22CB32CC12CD12CE12CF12C00E010E058
:100710000E94A00701E20E94E908322E232E942EA7
:10072000598F688F472E582E692EA0E00E94190914
:1007300009F435C13091570120915601932F990F3B
:10074000990BAC84BD84CE84DF84E888F9880A895B
:100750001B89492F592F692F792F892F0E94A007B4
:100760002C873D874E87752E862E7F87888B998BA9
:1007700030914B0120914A01932F990F990BA98039
:10078000BD80CE80DF80E884F9840A851B85492FEF
:10079000592F692F792F892F0E94A00701E10E940C
:1007A000D008AC84BD84CE84D72CE82CFF84088983
:1007B00019890E940709A22EB32EC42ED52EE62E2B
:1007C000F72E782E192F80E090E0A0E1B0E02C8980
:1007D0003D894E895F89821B930BA40BB50B9C014D
:1007E000AD01550F220B322FA90129833A834B8388
:1007F0005C83282F392F4A2F5B2F6981762F862F14
:10080000962F0FE10E94D008822E39834D835E839C
:10081000B62FA72FF82FE92F3091490120914801D9
:10082000932F990F990B492F592F692F792F892FC2
:1008300003E20E94D008072D0E940709A22EB32EC2
:10084000C42ED52EE62EF72E082F192F282D3981EC
:100850004D815E816B2F7A2F8F2F9E2F0E94100962
:100860000F2EF5E3AF2EF02D0F2EFCE0BF2EF02D56
:10087000C12CD12CE12CF12C00E010E00E94A0074B
:10088000A32CB22CC92CD98CE88CF42C052D162D58
:100890000E94FB072B873A8749835D836E837F83A2
:1008A000888799870DE00E94E908922E832E742E86
:1008B000652E562E472E382E292E30915301209129
:1008C0005201932F990F990BA92CB82CC72CD62C19
:1008D000E52CF42C032D122D492F592F692F792F38
:1008E000892F0E94A0070E94A00709E10E94E90841
:1008F000AB84BA84C980DD80EE80FF8008851985CD
:100900000E940709222E332E442E552E662E772E56
:10091000882E992E3091510120915001932F990FDB
:10092000990B492F592F692F792F892F0E94A007E2
:1009300003E10E94E908A22EB32EC42ED52EE62E86
:10094000F72E082F192F222D332D442D552D662DCE
:10095000772D882D992D0E94070908E00E94E9084B
:10096000A22EB32EC42ED52EE62EF72EE82F192F49
:100970003091410120914001932F990F990B492FFC
:10098000592F692F792F892F04E00E94D0080E2F4C
:100990000E940709622F732F842F952F04C060E0F7
:1009A00070E080E090E069960FB6F894DEBF0FBE6D
:1009B000CDBFDF91CF911F910F91FF90EF90DF900E
:1009C000CF90BF90AF909F908F907F906F905F90EF
:1009D0004F903F902F9008958F929F92AF92BF9229
:1009E000CF92DF92EF92FF9269E284EF0E94D000F3
:1009F00083EF0E94E70083FDFBCF0E94D2014B01F1
:100A00005C010E9412026B017C01C501B4010E94CD
:100A100052024B015C01C701B6010E94E8026B0162
:100A20007C01C501B4010E94820620E030E048EC60
:100A300052E40E94100660933C0170933D01809344
:100A40003E0190933F01C701B6010E94820620E05B
:100A500030E040E85BE30E94100720E030E048EC23
:100A600052E40E941006609338017093390180931C
:100A70003A0190933B01FF90EF90DF90CF90BF90B1
:100A8000AF909F908F9008951092B90088E4809362
:100A9000B800089584EA8093BC00ECEBF0E080811C
:100AA0008823ECF78091B900887F089584E98093CA
:100AB000BC0008958093BB0084E88093BC00ECEBFD
:100AC000F0E080818823ECF78091B900887F089559
:100AD00084E88093BC00ECEBF0E080818823ECF7A5
:100AE0008091BB0008951092C50087E68093C400F2
:100AF00088E18093C10086E08093C2000895E0EC15
:100B0000F0E0908195FFFDCF8093C6000895CF93CC
:100B1000DF93EC018881882331F021960E947F05C4
:100B200089918111FBCFDF91CF9108950F931F938E
:100B3000CF93DF93CDB7DEB764970FB6F894DEBFDF
:100B40000FBECDBF8E010F5F1F4F22E044E00E9419
:100B500034098981882349F00F5F1F4F0E947F0568
:100B6000F80181918F018111F9CF64960FB6F89445
:100B7000DEBF0FBECDBFDF91CF911F910F910895C2
:100B80000E9473050E9444050E9401010E94140105
:100B90000E941E010E9427010E94EC048AE191E05C
:100BA0000E94870560913C0170913D0180913E015A
:100BB00090913F010E94960580E290E00E947F059F
:100BC00083E490E00E947F058AE090E00E947F0528
:100BD00088E291E00E9487056091380170913901A7
:100BE00080913A0190913B010E94960580E290E04D
:100BF0000E947F0584E391E00E9487058AE090E0EF
:100C00000E947F058AE090E00E947F052FEF83E23B
:100C100094EF215080409040E1F700C00000BCCF2D
:100C20000E9424060C94D6060E94CF0658F00E941B
:100C3000C80640F029F45F3F29F00C94BF0651111B
:100C40000C940A070C94C5060E94E70668F39923E2
:100C5000B1F3552391F3951B550BBB27AA276217B8
:100C60007307840738F09F5F5F4F220F331F441FC5
:100C7000AA1FA9F335D00E2E3AF0E0E832D09150F9
:100C80005040E695001CCAF72BD0FE2F29D0660FE6
:100C9000771F881FBB1F261737074807AB07B0E829
:100CA00009F0BB0B802DBF01FF2793585F4F3AF02F
:100CB0009E3F510578F00C94BF060C940A075F3FE5
:100CC000E4F3983ED4F3869577956795B795F795B5
:100CD0009F5FC9F7880F911D9695879597F908959D
:100CE000E1E0660F771F881FBB1F62177307840739
:100CF000BA0720F0621B730B840BBA0BEE1F88F748
:100D0000E0950895E89409C097FB3EF4909580958E
:100D1000709561957F4F8F4F9F4F9923A9F0F92FC1
:100D200096E9BB279395F695879577956795B7953F
:100D3000F111F8CFFAF4BB0F11F460FF1BC06F5F25
:100D40007F4F8F4F9F4F16C0882311F096E911C037
:100D5000772321F09EE8872F762F05C0662371F058
:100D600096E8862F70E060E02AF09A95660F771F6C
:100D7000881FDAF7880F9695879597F9089597F960
:100D80009F6780E870E060E008959FEF80EC089531
:100D900000240A941616170618060906089500245A
:100DA0000A9412161306140605060895092E0394D4
:100DB000000C11F4882352F0BB0F40F4BF2B11F448
:100DC00060FF04C06F5F7F4F8F4F9F4F089557FDA7
:100DD0009058440F551F59F05F3F71F04795880FA9
:100DE00097FB991F61F09F3F79F087950895121640
:100DF00013061406551FF2CF4695F1DF08C01616EC
:100E000017061806991FF1CF86957105610508949C
:100E10000895E894BB2766277727CB0197F90895B3
:100E20000E9423070C94D6060E94C80638F00E9440
:100E3000CF0620F0952311F00C94BF060C94C50644
:100E400011240C940A070E94E70670F3959FC1F3E2
:100E5000950F50E0551F629FF001729FBB27F00D68
:100E6000B11D639FAA27F00DB11DAA1F649F6627BD
:100E7000B00DA11D661F829F2227B00DA11D621F0C
:100E8000739FB00DA11D621F839FA00D611D221FC6
:100E9000749F3327A00D611D231F849F600D211DAA
:100EA000822F762F6A2F11249F5750409AF0F1F02D
:100EB00088234AF0EE0FFF1FBB1F661F771F881F96
:100EC00091505040A9F79E3F510580F00C94BF0609
:100ED0000C940A075F3FE4F3983ED4F38695779528
:100EE0006795B795F795E7959F5FC1F7FE2B880F3C
:100EF000911D9695879597F90895DB018F939F93A0
:100F00000E948D07BF91AF91A29F800D911DA39F5D
:100F1000900DB29F900D112408950E942509A59F60
:100F2000900DB49F900DA49F800D911D11240895E4
:100F3000B7FF0C948D070E948D07821B930B0895B9
:100F4000DF93CF931F930F939A9DF02D219FF00D68
:100F50008B9DF00D8A9DE02DF10D039FF00D029FFA
:100F6000E00DF11D4E9DE00DF11D5E9DF00D4F9DBC
:100F7000F00D7F936F93BF92AF925F934F93D50124
:100F80000E9425098B01AC01D7010E942509EB01C4
:100F9000E80FF91FD6010E94F0072F913F91D6016B
:100FA0000E942509C60FD71FE81FF91FAF91BF91F7
:100FB0000E94F0072F913F910E942509C60FD71F6D
:100FC000E81FF91FD6010E942509E60FF71F9801B7
:100FD000BE01CF0111240F911F91CF91DF91089590
:100FE0000E942509460F571FC81FD91F08F43196C4
:100FF0000895689401C0E894F92FF12B12F00C9435
:101000002D08A0E0B0E0E7E0F8E00C949F08092E7E
:10101000059422F40E948908112392F4F0E80F2627
:10102000FFEFE094F09400951095B094C094D094A4
:10103000A194BF0ACF0ADF0AEF0AFF0A0F0B1F0BAA
:101040000E94380807FC0E948908CDB7DEB7ECE0A3
:101050000C94BB08689401C0E8948F929F92CF9340
:10106000DF930E943808DF91CF919F908F90089571
:1010700088249924F401E401B0E49F93AA279A15E7
:101080008B049C04ED05FE05CF05D007A10798F45D
:10109000AD2FDC2FCF2FFE2FE92D982C892E982FE6
:1010A000872F762F652F542F432F322F2227B850AA
:1010B00031F7BF9127C01B2EBF91BB27220F331FD3
:1010C000441F551F661F771F881F991F881C991C76
:1010D000EE1FFF1FCC1FDD1FAA1FBB1F8A149B041E
:1010E000EC05FD05CE05DF05A007B10748F08A181D
:1010F0009B08EC09FD09CE09DF09A00BB10B2160AB
:101100001A94E1F62EF49401AF01BE01CD01000C5A
:10111000089560957095809590953095409550957F
:1011200021953F4F4F4F5F4F6F4F7F4F8F4F9F4FD7
:1011300008952F923F924F925F926F927F928F927B
:101140009F92AF92BF92CF92DF92EF92FF920F9356
:101150001F93CF93DF93CDB7DEB7CA1BDB0B0FB660
:10116000F894DEBF0FBECDBF09942A88398848881D
:101170005F846E847D848C849B84AA84B984C884B3
:10118000DF80EE80FD800C811B81AA81B981CE0FAA
:10119000D11D0FB6F894DEBF0FBECDBFED0108958F
:1011A0000F93083090F0982F872F762F652F542FAC
:1011B000432F322F22270850F4CF220F331F441F12
:1011C000551F661F771F881F991F0A95B2F70F9149
:1011D000089597FB10F8169400080F93083098F0C4
:1011E0000850232F342F452F562F672F782F892F04
:1011F000902DF4CF0594979587957795679557959A
:101200004795379527950A95AAF70F9108952A0DC6
:101210003B1D4C1D5D1D6E1D7F1D801F911F089580
:101220002A193B094C095D096E097F09800B910B56
:1012300008950024A7FD00942A17300540055005A5
:1012400060057005800590050895A29FB001B39FC9
:10125000C001A39F700D811D1124911DB29F700DBF
:10126000811D1124911D0895EF920F931F93CF9329
:10127000DF93E80147FD02C034E001C034E1042EF1
:10128000000C550B57FF03C0519541955109E32EB2
:10129000022F242FAE010E945409CE01DF91CF917D
:1012A0001F910F91EF900895A9E0B0E0EAE5F9E011
:1012B0000C949F086A01122FB02E2BE3201720F008
:1012C000FF24F394F00E02C02CE3F22E0F2D27E042
:1012D000AE014F5F5F4F0E94AE0ABC014981842F6F
:1012E0008970813031F0E1FC06C0E0FE06C090E27A
:1012F00005C09DE203C09BE201C090E05E2D5071ED
:1013000043FF3CC0911102C083E001C084E081171B
:1013100018F4212F281B01C020E051110BC0F60149
:10132000822F30E2882319F031938150FBCFC20E17
:10133000D11C20E0992329F0D6019C93F601319627
:101340006F01C6010396E2FE0AC03EE4D6013C935B
:1013500041E411964C93119712963C9306C03EE6D9
:10136000F601308341E641833283FC01322F40E2B3
:10137000332309F442C041933150FACF42FF44C0B5
:10138000911102C083E001C084E0811718F4212F7D
:10139000281B01C020E051110BC0F601822F30E262
:1013A000882319F031938150FBCFC20ED11C20E06D
:1013B000992329F0D6019C93F60131966F01C6015D
:1013C0000396E2FE0BC039E4D6013C933EE411964D
:1013D0003C93119736E412963C9307C039E6F60128
:1013E00030833EE6318336E63283FC01322F40E221
:1013F000332319F041933150FBCFFC01E20FF11D73
:1014000010828EEF9FEFA6C021E030E0911102C064
:1014100020E030E0161617061CF4FB01319602C0DE
:10142000E1E0F0E02E0F3F1FBB2021F0EB2DF0E0BC
:10143000319602C0E0E0F0E02E0F3F1FE12FF0E018
:101440002E173F071CF4121B212F01C020E08E2D08
:10145000887159F4F601822F30E2882319F0319314
:101460008150FBCFC20ED11C20E0992329F0D60178
:101470009C93F60131966F0151110BC0F601822F3A
:1014800090E3882319F091938150FBCFC20ED11CB9
:1014900020E00F2D060F9A81342F307144FF03C0D6
:1014A000913309F40150101624F4093018F008E0C3
:1014B00001C001E0AB0177FF02C040E050E0FB015A
:1014C000E41BF50BA1E0B0E0AC0FBD1FEA0FFB1F62
:1014D0008EE2A82E4B01801A91080B2D10E0119579
:1014E000019511094F3FBFEF5B0721F4D601AC9284
:1014F00011966D01641775072CF08416950614F487
:10150000818101C080E3415051093196D601119685
:101510007D014017510724F0D6018C936701E2CF7B
:101520006417750739F4963320F4953319F43111A3
:1015300001C081E3F6018083F701822F90E28823C6
:1015400019F091938150FBCFF701E20FF11D10824A
:1015500080E090E02996ECE00C94BB08283008F07D
:1015600027E03327DA01990F311D87FD916000963E
:101570006105710539F432602E5F3D9330E32A95A1
:10158000E1F708959F3F30F080387105610509F05B
:101590003C5F3C5F3D93913008F08068911DDF9384
:1015A000CF931F930F93FF92EF92192F987F9695E9
:1015B000E92F96959695E90FFF27EE53FF4F992750
:1015C0003327EE24FF24A701E70105900894079430
:1015D00028F4360FE71EF81E491F511D660F771FAE
:1015E000881F991F0694A1F70590079428F4E70E29
:1015F000F81E491F561FC11D770F881F991F661FB0
:101600000694A1F70590079428F4F80E491F561F79
:10161000C71FD11D880F991F661F771F0694A1F75A
:101620000590079420F4490F561FC71FD81F990F24
:10163000661F771F881F0694A9F78491109517706D
:1016400041F0D695C79557954795F794E7941A9525
:10165000C1F7E8E6F0E06894159015913591659131
:10166000959105907FE27395E118F10A430B560BB3
:10167000C90BD009C0F7E10CF11E431F561FC91F4B
:10168000D01D7EF4703311F48A95E6CFE8940150B2
:1016900030F0080F0AF40027021708F4202F2395D2
:1016A000022F7A3328F079E37D932A95E9F710C069
:1016B0007D932A9589F606949795679537951795A2
:1016C0001794E118F10A430B560BC90BD00998F097
:1016D00023957E9173957A3308F070E37C93201301
:1016E000B8F77E9170617D9330F0839571E37D93BF
:1016F00070E32A95E1F71124EF90FF900F911F916D
:10170000CF91DF91992787FD90950895F894FFCFA9
:10171000636869705F6964656E7469666963617442
:10172000696F6E206572726F720054656D706572BC
:1017300061747572613A20004369736E69656E6900
:08174000653A200068506100C9
:00000001FF
